{
    "_format": "hh-sol-artifact-1",
    "contractName": "cryptomayne",
    "sourceName": "contracts/cryptomayne.sol",
    "abi": [
        {
            "inputs": [],
            "stateMutability": "payable",
            "type": "constructor"
        },
        {
            "anonymous": false,
            "inputs": [
                {
                    "indexed": true,
                    "internalType": "address",
                    "name": "owner",
                    "type": "address"
                },
                {
                    "indexed": true,
                    "internalType": "address",
                    "name": "approved",
                    "type": "address"
                },
                {
                    "indexed": true,
                    "internalType": "uint256",
                    "name": "tokenId",
                    "type": "uint256"
                }
            ],
            "name": "Approval",
            "type": "event"
        },
        {
            "anonymous": false,
            "inputs": [
                {
                    "indexed": true,
                    "internalType": "address",
                    "name": "owner",
                    "type": "address"
                },
                {
                    "indexed": true,
                    "internalType": "address",
                    "name": "operator",
                    "type": "address"
                },
                {
                    "indexed": false,
                    "internalType": "bool",
                    "name": "approved",
                    "type": "bool"
                }
            ],
            "name": "ApprovalForAll",
            "type": "event"
        },
        {
            "anonymous": false,
            "inputs": [
                {
                    "indexed": true,
                    "internalType": "address",
                    "name": "previousOwner",
                    "type": "address"
                },
                {
                    "indexed": true,
                    "internalType": "address",
                    "name": "newOwner",
                    "type": "address"
                }
            ],
            "name": "OwnershipTransferred",
            "type": "event"
        },
        {
            "anonymous": false,
            "inputs": [
                {
                    "indexed": true,
                    "internalType": "address",
                    "name": "from",
                    "type": "address"
                },
                {
                    "indexed": true,
                    "internalType": "address",
                    "name": "to",
                    "type": "address"
                },
                {
                    "indexed": true,
                    "internalType": "uint256",
                    "name": "tokenId",
                    "type": "uint256"
                }
            ],
            "name": "Transfer",
            "type": "event"
        },
        {
            "inputs": [
                {
                    "internalType": "address",
                    "name": "to",
                    "type": "address"
                },
                {
                    "internalType": "uint256",
                    "name": "tokenId",
                    "type": "uint256"
                }
            ],
            "name": "approve",
            "outputs": [],
            "stateMutability": "nonpayable",
            "type": "function"
        },
        {
            "inputs": [
                {
                    "internalType": "address",
                    "name": "owner",
                    "type": "address"
                }
            ],
            "name": "balanceOf",
            "outputs": [
                {
                    "internalType": "uint256",
                    "name": "",
                    "type": "uint256"
                }
            ],
            "stateMutability": "view",
            "type": "function"
        },
        {
            "inputs": [],
            "name": "baseTokenURI",
            "outputs": [
                {
                    "internalType": "string",
                    "name": "",
                    "type": "string"
                }
            ],
            "stateMutability": "view",
            "type": "function"
        },
        {
            "inputs": [
                {
                    "internalType": "uint256",
                    "name": "tokenId",
                    "type": "uint256"
                }
            ],
            "name": "getApproved",
            "outputs": [
                {
                    "internalType": "address",
                    "name": "",
                    "type": "address"
                }
            ],
            "stateMutability": "view",
            "type": "function"
        },
        {
            "inputs": [
                {
                    "internalType": "address",
                    "name": "owner",
                    "type": "address"
                },
                {
                    "internalType": "address",
                    "name": "operator",
                    "type": "address"
                }
            ],
            "name": "isApprovedForAll",
            "outputs": [
                {
                    "internalType": "bool",
                    "name": "",
                    "type": "bool"
                }
            ],
            "stateMutability": "view",
            "type": "function"
        },
        {
            "inputs": [],
            "name": "isPublicMintEnabled",
            "outputs": [
                {
                    "internalType": "bool",
                    "name": "",
                    "type": "bool"
                }
            ],
            "stateMutability": "view",
            "type": "function"
        },
        {
            "inputs": [],
            "name": "maxPerwallet",
            "outputs": [
                {
                    "internalType": "uint256",
                    "name": "",
                    "type": "uint256"
                }
            ],
            "stateMutability": "view",
            "type": "function"
        },
        {
            "inputs": [],
            "name": "maxSupply",
            "outputs": [
                {
                    "internalType": "uint256",
                    "name": "",
                    "type": "uint256"
                }
            ],
            "stateMutability": "view",
            "type": "function"
        },
        {
            "inputs": [
                {
                    "internalType": "uint256",
                    "name": "quantity_",
                    "type": "uint256"
                }
            ],
            "name": "mint",
            "outputs": [],
            "stateMutability": "payable",
            "type": "function"
        },
        {
            "inputs": [],
            "name": "mintPrice",
            "outputs": [
                {
                    "internalType": "uint256",
                    "name": "",
                    "type": "uint256"
                }
            ],
            "stateMutability": "view",
            "type": "function"
        },
        {
            "inputs": [],
            "name": "name",
            "outputs": [
                {
                    "internalType": "string",
                    "name": "",
                    "type": "string"
                }
            ],
            "stateMutability": "view",
            "type": "function"
        },
        {
            "inputs": [],
            "name": "owner",
            "outputs": [
                {
                    "internalType": "address",
                    "name": "",
                    "type": "address"
                }
            ],
            "stateMutability": "view",
            "type": "function"
        },
        {
            "inputs": [
                {
                    "internalType": "uint256",
                    "name": "tokenId",
                    "type": "uint256"
                }
            ],
            "name": "ownerOf",
            "outputs": [
                {
                    "internalType": "address",
                    "name": "",
                    "type": "address"
                }
            ],
            "stateMutability": "view",
            "type": "function"
        },
        {
            "inputs": [],
            "name": "renounceOwnership",
            "outputs": [],
            "stateMutability": "nonpayable",
            "type": "function"
        },
        {
            "inputs": [
                {
                    "internalType": "address",
                    "name": "from",
                    "type": "address"
                },
                {
                    "internalType": "address",
                    "name": "to",
                    "type": "address"
                },
                {
                    "internalType": "uint256",
                    "name": "tokenId",
                    "type": "uint256"
                }
            ],
            "name": "safeTransferFrom",
            "outputs": [],
            "stateMutability": "nonpayable",
            "type": "function"
        },
        {
            "inputs": [
                {
                    "internalType": "address",
                    "name": "from",
                    "type": "address"
                },
                {
                    "internalType": "address",
                    "name": "to",
                    "type": "address"
                },
                {
                    "internalType": "uint256",
                    "name": "tokenId",
                    "type": "uint256"
                },
                {
                    "internalType": "bytes",
                    "name": "_data",
                    "type": "bytes"
                }
            ],
            "name": "safeTransferFrom",
            "outputs": [],
            "stateMutability": "nonpayable",
            "type": "function"
        },
        {
            "inputs": [
                {
                    "internalType": "address",
                    "name": "operator",
                    "type": "address"
                },
                {
                    "internalType": "bool",
                    "name": "approved",
                    "type": "bool"
                }
            ],
            "name": "setApprovalForAll",
            "outputs": [],
            "stateMutability": "nonpayable",
            "type": "function"
        },
        {
            "inputs": [
                {
                    "internalType": "string",
                    "name": "baseTokenURI_",
                    "type": "string"
                }
            ],
            "name": "setBaseTokenURI",
            "outputs": [],
            "stateMutability": "nonpayable",
            "type": "function"
        },
        {
            "inputs": [
                {
                    "internalType": "bool",
                    "name": "isPublicMintEnabled_",
                    "type": "bool"
                }
            ],
            "name": "setIsPublicMintEnabled",
            "outputs": [],
            "stateMutability": "nonpayable",
            "type": "function"
        },
        {
            "inputs": [
                {
                    "internalType": "bytes4",
                    "name": "interfaceId",
                    "type": "bytes4"
                }
            ],
            "name": "supportsInterface",
            "outputs": [
                {
                    "internalType": "bool",
                    "name": "",
                    "type": "bool"
                }
            ],
            "stateMutability": "view",
            "type": "function"
        },
        {
            "inputs": [],
            "name": "symbol",
            "outputs": [
                {
                    "internalType": "string",
                    "name": "",
                    "type": "string"
                }
            ],
            "stateMutability": "view",
            "type": "function"
        },
        {
            "inputs": [
                {
                    "internalType": "uint256",
                    "name": "tokenId_",
                    "type": "uint256"
                }
            ],
            "name": "tokenURI",
            "outputs": [
                {
                    "internalType": "string",
                    "name": "",
                    "type": "string"
                }
            ],
            "stateMutability": "view",
            "type": "function"
        },
        {
            "inputs": [],
            "name": "totalSupply",
            "outputs": [
                {
                    "internalType": "uint256",
                    "name": "",
                    "type": "uint256"
                }
            ],
            "stateMutability": "view",
            "type": "function"
        },
        {
            "inputs": [
                {
                    "internalType": "address",
                    "name": "from",
                    "type": "address"
                },
                {
                    "internalType": "address",
                    "name": "to",
                    "type": "address"
                },
                {
                    "internalType": "uint256",
                    "name": "tokenId",
                    "type": "uint256"
                }
            ],
            "name": "transferFrom",
            "outputs": [],
            "stateMutability": "nonpayable",
            "type": "function"
        },
        {
            "inputs": [
                {
                    "internalType": "address",
                    "name": "newOwner",
                    "type": "address"
                }
            ],
            "name": "transferOwnership",
            "outputs": [],
            "stateMutability": "nonpayable",
            "type": "function"
        },
        {
            "inputs": [
                {
                    "internalType": "address",
                    "name": "",
                    "type": "address"
                }
            ],
            "name": "walletMints",
            "outputs": [
                {
                    "internalType": "uint256",
                    "name": "",
                    "type": "uint256"
                }
            ],
            "stateMutability": "view",
            "type": "function"
        },
        {
            "inputs": [],
            "name": "withdraw",
            "outputs": [],
            "stateMutability": "nonpayable",
            "type": "function"
        },
        {
            "inputs": [],
            "name": "withdrawWallet",
            "outputs": [
                {
                    "internalType": "address payable",
                    "name": "",
                    "type": "address"
                }
            ],
            "stateMutability": "view",
            "type": "function"
        }
    ],
    "bytecode": "0x60806040526040518060400160405280600b81526020017f63727970746f6d61796e650000000000000000000000000000000000000000008152506040518060400160405280600281526020017f434d00000000000000000000000000000000000000000000000000000000000081525081600090805190602001906200008892919062000189565b508060019080519060200190620000a192919062000189565b5050506000620000b66200018160201b60201c565b905080600660006101000a81548173ffffffffffffffffffffffffffffffffffffffff021916908373ffffffffffffffffffffffffffffffffffffffff1602179055508073ffffffffffffffffffffffffffffffffffffffff16600073ffffffffffffffffffffffffffffffffffffffff167f8be0079c531659141344cd1fd0a4f28419497f9722a3daafe3b4186f6b6457e060405160405180910390a35066b1a2bc2ec500006007819055506103e86008819055506000600981905550600a80819055506200029e565b600033905090565b828054620001979062000239565b90600052602060002090601f016020900481019282620001bb576000855562000207565b82601f10620001d657805160ff191683800117855562000207565b8280016001018555821562000207579182015b8281111562000206578251825591602001919060010190620001e9565b5b5090506200021691906200021a565b5090565b5b80821115620002355760008160009055506001016200021b565b5090565b600060028204905060018216806200025257607f821691505b602082108114156200026957620002686200026f565b5b50919050565b7f4e487b7100000000000000000000000000000000000000000000000000000000600052602260045260246000fd5b6137f080620002ae6000396000f3fe6080604052600436106101b75760003560e01c8063715018a6116100ec578063b88d4fde1161008a578063d5abeb0111610064578063d5abeb01146105d9578063e985e9c514610604578063f0293fd314610641578063f2fde38b1461067e576101b7565b8063b88d4fde14610548578063c87b56dd14610571578063d547cfb7146105ae576101b7565b806395d89b41116100c657806395d89b41146104ad578063a0712d68146104d8578063a22cb465146104f4578063b570207d1461051d576101b7565b8063715018a61461044057806385d178f4146104575780638da5cb5b14610482576101b7565b806323b872dd1161015957806342842e0e1161013357806342842e0e146103725780636352211e1461039b5780636817c76c146103d857806370a0823114610403576101b7565b806323b872dd1461030957806330176e13146103325780633ccfd60b1461035b576101b7565b8063081812fc11610195578063081812fc1461024f578063095ea7b31461028c57806318160ddd146102b55780632373ac22146102e0576101b7565b80630116bc2d146101bc57806301ffc9a7146101e757806306fdde0314610224575b600080fd5b3480156101c857600080fd5b506101d16106a7565b6040516101de919061301c565b60405180910390f35b3480156101f357600080fd5b5061020e60048036038101906102099190612600565b6106ba565b60405161021b919061301c565b60405180910390f35b34801561023057600080fd5b5061023961079c565b6040516102469190613037565b60405180910390f35b34801561025b57600080fd5b5061027660048036038101906102719190612693565b61082e565b6040516102839190612f9a565b60405180910390f35b34801561029857600080fd5b506102b360048036038101906102ae919061259b565b6108b3565b005b3480156102c157600080fd5b506102ca6109cb565b6040516102d791906132f9565b60405180910390f35b3480156102ec57600080fd5b50610307600480360381019061030291906125d7565b6109d1565b005b34801561031557600080fd5b50610330600480360381019061032b9190612495565b610a6a565b005b34801561033e57600080fd5b5061035960048036038101906103549190612652565b610aca565b005b34801561036757600080fd5b50610370610b60565b005b34801561037e57600080fd5b5061039960048036038101906103949190612495565b610cad565b005b3480156103a757600080fd5b506103c260048036038101906103bd9190612693565b610ccd565b6040516103cf9190612f9a565b60405180910390f35b3480156103e457600080fd5b506103ed610d7f565b6040516103fa91906132f9565b60405180910390f35b34801561040f57600080fd5b5061042a60048036038101906104259190612430565b610d85565b60405161043791906132f9565b60405180910390f35b34801561044c57600080fd5b50610455610e3d565b005b34801561046357600080fd5b5061046c610f7a565b6040516104799190612fb5565b60405180910390f35b34801561048e57600080fd5b50610497610fa0565b6040516104a49190612f9a565b60405180910390f35b3480156104b957600080fd5b506104c2610fca565b6040516104cf9190613037565b60405180910390f35b6104f260048036038101906104ed9190612693565b61105c565b005b34801561050057600080fd5b5061051b6004803603810190610516919061255f565b611233565b005b34801561052957600080fd5b506105326113b4565b60405161053f91906132f9565b60405180910390f35b34801561055457600080fd5b5061056f600480360381019061056a91906124e4565b6113ba565b005b34801561057d57600080fd5b5061059860048036038101906105939190612693565b61141c565b6040516105a59190613037565b60405180910390f35b3480156105ba57600080fd5b506105c3611498565b6040516105d09190613037565b60405180910390f35b3480156105e557600080fd5b506105ee611526565b6040516105fb91906132f9565b60405180910390f35b34801561061057600080fd5b5061062b60048036038101906106269190612459565b61152c565b604051610638919061301c565b60405180910390f35b34801561064d57600080fd5b5061066860048036038101906106639190612430565b6115c0565b60405161067591906132f9565b60405180910390f35b34801561068a57600080fd5b506106a560048036038101906106a09190612430565b6115d8565b005b600b60009054906101000a900460ff1681565b60007f80ac58cd000000000000000000000000000000000000000000000000000000007bffffffffffffffffffffffffffffffffffffffffffffffffffffffff1916827bffffffffffffffffffffffffffffffffffffffffffffffffffffffff1916148061078557507f5b5e139f000000000000000000000000000000000000000000000000000000007bffffffffffffffffffffffffffffffffffffffffffffffffffffffff1916827bffffffffffffffffffffffffffffffffffffffffffffffffffffffff1916145b80610795575061079482611784565b5b9050919050565b6060600080546107ab906135e5565b80601f01602080910402602001604051908101604052809291908181526020018280546107d7906135e5565b80156108245780601f106107f957610100808354040283529160200191610824565b820191906000526020600020905b81548152906001019060200180831161080757829003601f168201915b5050505050905090565b6000610839826117ee565b610878576040517f08c379a000000000000000000000000000000000000000000000000000000000815260040161086f90613219565b60405180910390fd5b6004600083815260200190815260200160002060009054906101000a900473ffffffffffffffffffffffffffffffffffffffff169050919050565b60006108be82610ccd565b90508073ffffffffffffffffffffffffffffffffffffffff168373ffffffffffffffffffffffffffffffffffffffff16141561092f576040517f08c379a000000000000000000000000000000000000000000000000000000000815260040161092690613279565b60405180910390fd5b8073ffffffffffffffffffffffffffffffffffffffff1661094e61185a565b73ffffffffffffffffffffffffffffffffffffffff16148061097d575061097c8161097761185a565b61152c565b5b6109bc576040517f08c379a00000000000000000000000000000000000000000000000000000000081526004016109b390613179565b60405180910390fd5b6109c68383611862565b505050565b60095481565b6109d961185a565b73ffffffffffffffffffffffffffffffffffffffff166109f7610fa0565b73ffffffffffffffffffffffffffffffffffffffff1614610a4d576040517f08c379a0000000000000000000000000000000000000000000000000000000008152600401610a4490613239565b60405180910390fd5b80600b60006101000a81548160ff02191690831515021790555050565b610a7b610a7561185a565b8261191b565b610aba576040517f08c379a0000000000000000000000000000000000000000000000000000000008152600401610ab190613299565b60405180910390fd5b610ac58383836119f9565b505050565b610ad261185a565b73ffffffffffffffffffffffffffffffffffffffff16610af0610fa0565b73ffffffffffffffffffffffffffffffffffffffff1614610b46576040517f08c379a0000000000000000000000000000000000000000000000000000000008152600401610b3d90613239565b60405180910390fd5b80600c9080519060200190610b5c929190612254565b5050565b610b6861185a565b73ffffffffffffffffffffffffffffffffffffffff16610b86610fa0565b73ffffffffffffffffffffffffffffffffffffffff1614610bdc576040517f08c379a0000000000000000000000000000000000000000000000000000000008152600401610bd390613239565b60405180910390fd5b6000600d60009054906101000a900473ffffffffffffffffffffffffffffffffffffffff1673ffffffffffffffffffffffffffffffffffffffff1647604051610c2490612f85565b60006040518083038185875af1925050503d8060008114610c61576040519150601f19603f3d011682016040523d82523d6000602084013e610c66565b606091505b5050905080610caa576040517f08c379a0000000000000000000000000000000000000000000000000000000008152600401610ca1906132d9565b60405180910390fd5b50565b610cc8838383604051806020016040528060008152506113ba565b505050565b6000806002600084815260200190815260200160002060009054906101000a900473ffffffffffffffffffffffffffffffffffffffff169050600073ffffffffffffffffffffffffffffffffffffffff168173ffffffffffffffffffffffffffffffffffffffff161415610d76576040517f08c379a0000000000000000000000000000000000000000000000000000000008152600401610d6d906131b9565b60405180910390fd5b80915050919050565b60075481565b60008073ffffffffffffffffffffffffffffffffffffffff168273ffffffffffffffffffffffffffffffffffffffff161415610df6576040517f08c379a0000000000000000000000000000000000000000000000000000000008152600401610ded90613199565b60405180910390fd5b600360008373ffffffffffffffffffffffffffffffffffffffff1673ffffffffffffffffffffffffffffffffffffffff168152602001908152602001600020549050919050565b610e4561185a565b73ffffffffffffffffffffffffffffffffffffffff16610e63610fa0565b73ffffffffffffffffffffffffffffffffffffffff1614610eb9576040517f08c379a0000000000000000000000000000000000000000000000000000000008152600401610eb090613239565b60405180910390fd5b600073ffffffffffffffffffffffffffffffffffffffff16600660009054906101000a900473ffffffffffffffffffffffffffffffffffffffff1673ffffffffffffffffffffffffffffffffffffffff167f8be0079c531659141344cd1fd0a4f28419497f9722a3daafe3b4186f6b6457e060405160405180910390a36000600660006101000a81548173ffffffffffffffffffffffffffffffffffffffff021916908373ffffffffffffffffffffffffffffffffffffffff160217905550565b600d60009054906101000a900473ffffffffffffffffffffffffffffffffffffffff1681565b6000600660009054906101000a900473ffffffffffffffffffffffffffffffffffffffff16905090565b606060018054610fd9906135e5565b80601f0160208091040260200160405190810160405280929190818152602001828054611005906135e5565b80156110525780601f1061102757610100808354040283529160200191611052565b820191906000526020600020905b81548152906001019060200180831161103557829003601f168201915b5050505050905090565b600b60009054906101000a900460ff166110ab576040517f08c379a00000000000000000000000000000000000000000000000000000000081526004016110a2906131d9565b60405180910390fd5b806007546110b9919061348f565b34146110fa576040517f08c379a00000000000000000000000000000000000000000000000000000000081526004016110f190613159565b60405180910390fd5b6008548160095461110b9190613408565b111561114c576040517f08c379a000000000000000000000000000000000000000000000000000000000815260040161114390613139565b60405180910390fd5b600a5481600e60003373ffffffffffffffffffffffffffffffffffffffff1673ffffffffffffffffffffffffffffffffffffffff1681526020019081526020016000205461119a9190613408565b11156111db576040517f08c379a00000000000000000000000000000000000000000000000000000000081526004016111d2906132b9565b60405180910390fd5b60005b8181101561122f57600060016009546111f79190613408565b90506009600081548092919061120c90613617565b919050555061121b3382611c55565b50808061122790613617565b9150506111de565b5050565b61123b61185a565b73ffffffffffffffffffffffffffffffffffffffff168273ffffffffffffffffffffffffffffffffffffffff1614156112a9576040517f08c379a00000000000000000000000000000000000000000000000000000000081526004016112a0906130d9565b60405180910390fd5b80600560006112b661185a565b73ffffffffffffffffffffffffffffffffffffffff1673ffffffffffffffffffffffffffffffffffffffff16815260200190815260200160002060008473ffffffffffffffffffffffffffffffffffffffff1673ffffffffffffffffffffffffffffffffffffffff16815260200190815260200160002060006101000a81548160ff0219169083151502179055508173ffffffffffffffffffffffffffffffffffffffff1661136361185a565b73ffffffffffffffffffffffffffffffffffffffff167f17307eab39ab6107e8899845ad3d59bd9653f200f220920489ca2b5937696c31836040516113a8919061301c565b60405180910390a35050565b600a5481565b6113cb6113c561185a565b8361191b565b61140a576040517f08c379a000000000000000000000000000000000000000000000000000000000815260040161140190613299565b60405180910390fd5b61141684848484611c73565b50505050565b6060611427826117ee565b611466576040517f08c379a000000000000000000000000000000000000000000000000000000000815260040161145d906130f9565b60405180910390fd5b600c61147183611ccf565b604051602001611482929190612f56565b6040516020818303038152906040529050919050565b600c80546114a5906135e5565b80601f01602080910402602001604051908101604052809291908181526020018280546114d1906135e5565b801561151e5780601f106114f35761010080835404028352916020019161151e565b820191906000526020600020905b81548152906001019060200180831161150157829003601f168201915b505050505081565b60085481565b6000600560008473ffffffffffffffffffffffffffffffffffffffff1673ffffffffffffffffffffffffffffffffffffffff16815260200190815260200160002060008373ffffffffffffffffffffffffffffffffffffffff1673ffffffffffffffffffffffffffffffffffffffff16815260200190815260200160002060009054906101000a900460ff16905092915050565b600e6020528060005260406000206000915090505481565b6115e061185a565b73ffffffffffffffffffffffffffffffffffffffff166115fe610fa0565b73ffffffffffffffffffffffffffffffffffffffff1614611654576040517f08c379a000000000000000000000000000000000000000000000000000000000815260040161164b90613239565b60405180910390fd5b600073ffffffffffffffffffffffffffffffffffffffff168173ffffffffffffffffffffffffffffffffffffffff1614156116c4576040517f08c379a00000000000000000000000000000000000000000000000000000000081526004016116bb90613079565b60405180910390fd5b8073ffffffffffffffffffffffffffffffffffffffff16600660009054906101000a900473ffffffffffffffffffffffffffffffffffffffff1673ffffffffffffffffffffffffffffffffffffffff167f8be0079c531659141344cd1fd0a4f28419497f9722a3daafe3b4186f6b6457e060405160405180910390a380600660006101000a81548173ffffffffffffffffffffffffffffffffffffffff021916908373ffffffffffffffffffffffffffffffffffffffff16021790555050565b60007f01ffc9a7000000000000000000000000000000000000000000000000000000007bffffffffffffffffffffffffffffffffffffffffffffffffffffffff1916827bffffffffffffffffffffffffffffffffffffffffffffffffffffffff1916149050919050565b60008073ffffffffffffffffffffffffffffffffffffffff166002600084815260200190815260200160002060009054906101000a900473ffffffffffffffffffffffffffffffffffffffff1673ffffffffffffffffffffffffffffffffffffffff1614159050919050565b600033905090565b816004600083815260200190815260200160002060006101000a81548173ffffffffffffffffffffffffffffffffffffffff021916908373ffffffffffffffffffffffffffffffffffffffff160217905550808273ffffffffffffffffffffffffffffffffffffffff166118d583610ccd565b73ffffffffffffffffffffffffffffffffffffffff167f8c5be1e5ebec7d5bd14f71427d1e84f3dd0314c0f7b2291e5b200ac8c7c3b92560405160405180910390a45050565b6000611926826117ee565b611965576040517f08c379a000000000000000000000000000000000000000000000000000000000815260040161195c90613119565b60405180910390fd5b600061197083610ccd565b90508073ffffffffffffffffffffffffffffffffffffffff168473ffffffffffffffffffffffffffffffffffffffff1614806119df57508373ffffffffffffffffffffffffffffffffffffffff166119c78461082e565b73ffffffffffffffffffffffffffffffffffffffff16145b806119f057506119ef818561152c565b5b91505092915050565b8273ffffffffffffffffffffffffffffffffffffffff16611a1982610ccd565b73ffffffffffffffffffffffffffffffffffffffff1614611a6f576040517f08c379a0000000000000000000000000000000000000000000000000000000008152600401611a6690613259565b60405180910390fd5b600073ffffffffffffffffffffffffffffffffffffffff168273ffffffffffffffffffffffffffffffffffffffff161415611adf576040517f08c379a0000000000000000000000000000000000000000000000000000000008152600401611ad6906130b9565b60405180910390fd5b611aea838383611e7c565b611af5600082611862565b6001600360008573ffffffffffffffffffffffffffffffffffffffff1673ffffffffffffffffffffffffffffffffffffffff1681526020019081526020016000206000828254611b4591906134e9565b925050819055506001600360008473ffffffffffffffffffffffffffffffffffffffff1673ffffffffffffffffffffffffffffffffffffffff1681526020019081526020016000206000828254611b9c9190613408565b92505081905550816002600083815260200190815260200160002060006101000a81548173ffffffffffffffffffffffffffffffffffffffff021916908373ffffffffffffffffffffffffffffffffffffffff160217905550808273ffffffffffffffffffffffffffffffffffffffff168473ffffffffffffffffffffffffffffffffffffffff167fddf252ad1be2c89b69c2b068fc378daa952ba7f163c4a11628f55a4df523b3ef60405160405180910390a4505050565b611c6f828260405180602001604052806000815250611e81565b5050565b611c7e8484846119f9565b611c8a84848484611edc565b611cc9576040517f08c379a0000000000000000000000000000000000000000000000000000000008152600401611cc090613059565b60405180910390fd5b50505050565b60606000821415611d17576040518060400160405280600181526020017f30000000000000000000000000000000000000000000000000000000000000008152509050611e77565b600082905060005b60008214611d49578080611d3290613617565b915050600a82611d42919061345e565b9150611d1f565b60008167ffffffffffffffff811115611d8b577f4e487b7100000000000000000000000000000000000000000000000000000000600052604160045260246000fd5b6040519080825280601f01601f191660200182016040528015611dbd5781602001600182028036833780820191505090505b5090505b60008514611e7057600182611dd691906134e9565b9150600a85611de59190613660565b6030611df19190613408565b60f81b818381518110611e2d577f4e487b7100000000000000000000000000000000000000000000000000000000600052603260045260246000fd5b60200101907effffffffffffffffffffffffffffffffffffffffffffffffffffffffffffff1916908160001a905350600a85611e69919061345e565b9450611dc1565b8093505050505b919050565b505050565b611e8b8383612073565b611e986000848484611edc565b611ed7576040517f08c379a0000000000000000000000000000000000000000000000000000000008152600401611ece90613059565b60405180910390fd5b505050565b6000611efd8473ffffffffffffffffffffffffffffffffffffffff16612241565b15612066578373ffffffffffffffffffffffffffffffffffffffff1663150b7a02611f2661185a565b8786866040518563ffffffff1660e01b8152600401611f489493929190612fd0565b602060405180830381600087803b158015611f6257600080fd5b505af1925050508015611f9357506040513d601f19601f82011682018060405250810190611f909190612629565b60015b612016573d8060008114611fc3576040519150601f19603f3d011682016040523d82523d6000602084013e611fc8565b606091505b5060008151141561200e576040517f08c379a000000000000000000000000000000000000000000000000000000000815260040161200590613059565b60405180910390fd5b805181602001fd5b63150b7a0260e01b7bffffffffffffffffffffffffffffffffffffffffffffffffffffffff1916817bffffffffffffffffffffffffffffffffffffffffffffffffffffffff19161491505061206b565b600190505b949350505050565b600073ffffffffffffffffffffffffffffffffffffffff168273ffffffffffffffffffffffffffffffffffffffff1614156120e3576040517f08c379a00000000000000000000000000000000000000000000000000000000081526004016120da906131f9565b60405180910390fd5b6120ec816117ee565b1561212c576040517f08c379a000000000000000000000000000000000000000000000000000000000815260040161212390613099565b60405180910390fd5b61213860008383611e7c565b6001600360008473ffffffffffffffffffffffffffffffffffffffff1673ffffffffffffffffffffffffffffffffffffffff16815260200190815260200160002060008282546121889190613408565b92505081905550816002600083815260200190815260200160002060006101000a81548173ffffffffffffffffffffffffffffffffffffffff021916908373ffffffffffffffffffffffffffffffffffffffff160217905550808273ffffffffffffffffffffffffffffffffffffffff16600073ffffffffffffffffffffffffffffffffffffffff167fddf252ad1be2c89b69c2b068fc378daa952ba7f163c4a11628f55a4df523b3ef60405160405180910390a45050565b600080823b905060008111915050919050565b828054612260906135e5565b90600052602060002090601f01602090048101928261228257600085556122c9565b82601f1061229b57805160ff19168380011785556122c9565b828001600101855582156122c9579182015b828111156122c85782518255916020019190600101906122ad565b5b5090506122d691906122da565b5090565b5b808211156122f35760008160009055506001016122db565b5090565b600061230a61230584613345565b613314565b90508281526020810184848401111561232257600080fd5b61232d8482856135a3565b509392505050565b600061234861234384613375565b613314565b90508281526020810184848401111561236057600080fd5b61236b8482856135a3565b509392505050565b6000813590506123828161375e565b92915050565b60008135905061239781613775565b92915050565b6000813590506123ac8161378c565b92915050565b6000815190506123c18161378c565b92915050565b600082601f8301126123d857600080fd5b81356123e88482602086016122f7565b91505092915050565b600082601f83011261240257600080fd5b8135612412848260208601612335565b91505092915050565b60008135905061242a816137a3565b92915050565b60006020828403121561244257600080fd5b600061245084828501612373565b91505092915050565b6000806040838503121561246c57600080fd5b600061247a85828601612373565b925050602061248b85828601612373565b9150509250929050565b6000806000606084860312156124aa57600080fd5b60006124b886828701612373565b93505060206124c986828701612373565b92505060406124da8682870161241b565b9150509250925092565b600080600080608085870312156124fa57600080fd5b600061250887828801612373565b945050602061251987828801612373565b935050604061252a8782880161241b565b925050606085013567ffffffffffffffff81111561254757600080fd5b612553878288016123c7565b91505092959194509250565b6000806040838503121561257257600080fd5b600061258085828601612373565b925050602061259185828601612388565b9150509250929050565b600080604083850312156125ae57600080fd5b60006125bc85828601612373565b92505060206125cd8582860161241b565b9150509250929050565b6000602082840312156125e957600080fd5b60006125f784828501612388565b91505092915050565b60006020828403121561261257600080fd5b60006126208482850161239d565b91505092915050565b60006020828403121561263b57600080fd5b6000612649848285016123b2565b91505092915050565b60006020828403121561266457600080fd5b600082013567ffffffffffffffff81111561267e57600080fd5b61268a848285016123f1565b91505092915050565b6000602082840312156126a557600080fd5b60006126b38482850161241b565b91505092915050565b6126c58161352f565b82525050565b6126d48161351d565b82525050565b6126e381613541565b82525050565b60006126f4826133ba565b6126fe81856133d0565b935061270e8185602086016135b2565b6127178161374d565b840191505092915050565b600061272d826133c5565b61273781856133ec565b93506127478185602086016135b2565b6127508161374d565b840191505092915050565b6000612766826133c5565b61277081856133fd565b93506127808185602086016135b2565b80840191505092915050565b60008154612799816135e5565b6127a381866133fd565b945060018216600081146127be57600181146127cf57612802565b60ff19831686528186019350612802565b6127d8856133a5565b60005b838110156127fa578154818901526001820191506020810190506127db565b838801955050505b50505092915050565b60006128186032836133ec565b91507f4552433732313a207472616e7366657220746f206e6f6e20455243373231526560008301527f63656976657220696d706c656d656e74657200000000000000000000000000006020830152604082019050919050565b600061287e6026836133ec565b91507f4f776e61626c653a206e6577206f776e657220697320746865207a65726f206160008301527f64647265737300000000000000000000000000000000000000000000000000006020830152604082019050919050565b60006128e4601c836133ec565b91507f4552433732313a20746f6b656e20616c7265616479206d696e746564000000006000830152602082019050919050565b60006129246024836133ec565b91507f4552433732313a207472616e7366657220746f20746865207a65726f2061646460008301527f72657373000000000000000000000000000000000000000000000000000000006020830152604082019050919050565b600061298a6019836133ec565b91507f4552433732313a20617070726f766520746f2063616c6c6572000000000000006000830152602082019050919050565b60006129ca6014836133ec565b91507f546f6b656e20646f6573206e6f742065786973740000000000000000000000006000830152602082019050919050565b6000612a0a602c836133ec565b91507f4552433732313a206f70657261746f7220717565727920666f72206e6f6e657860008301527f697374656e7420746f6b656e00000000000000000000000000000000000000006020830152604082019050919050565b6000612a706008836133ec565b91507f736f6c64206f75740000000000000000000000000000000000000000000000006000830152602082019050919050565b6000612ab06012836133ec565b91507f496e73756666696369656e742066756e647300000000000000000000000000006000830152602082019050919050565b6000612af06038836133ec565b91507f4552433732313a20617070726f76652063616c6c6572206973206e6f74206f7760008301527f6e6572206e6f7220617070726f76656420666f7220616c6c00000000000000006020830152604082019050919050565b6000612b56602a836133ec565b91507f4552433732313a2062616c616e636520717565727920666f7220746865207a6560008301527f726f2061646472657373000000000000000000000000000000000000000000006020830152604082019050919050565b6000612bbc6029836133ec565b91507f4552433732313a206f776e657220717565727920666f72206e6f6e657869737460008301527f656e7420746f6b656e00000000000000000000000000000000000000000000006020830152604082019050919050565b6000612c22601a836133ec565b91507f5075626c6963206d696e74206973206e6f7420656e61626c65640000000000006000830152602082019050919050565b6000612c626020836133ec565b91507f4552433732313a206d696e7420746f20746865207a65726f20616464726573736000830152602082019050919050565b6000612ca2602c836133ec565b91507f4552433732313a20617070726f76656420717565727920666f72206e6f6e657860008301527f697374656e7420746f6b656e00000000000000000000000000000000000000006020830152604082019050919050565b6000612d086005836133fd565b91507f2e6a736f6e0000000000000000000000000000000000000000000000000000006000830152600582019050919050565b6000612d486020836133ec565b91507f4f776e61626c653a2063616c6c6572206973206e6f7420746865206f776e65726000830152602082019050919050565b6000612d886029836133ec565b91507f4552433732313a207472616e73666572206f6620746f6b656e2074686174206960008301527f73206e6f74206f776e00000000000000000000000000000000000000000000006020830152604082019050919050565b6000612dee6021836133ec565b91507f4552433732313a20617070726f76616c20746f2063757272656e74206f776e6560008301527f72000000000000000000000000000000000000000000000000000000000000006020830152604082019050919050565b6000612e546000836133e1565b9150600082019050919050565b6000612e6e6031836133ec565b91507f4552433732313a207472616e736665722063616c6c6572206973206e6f74206f60008301527f776e6572206e6f7220617070726f7665640000000000000000000000000000006020830152604082019050919050565b6000612ed46016836133ec565b91507f45786365656473206d6178207065722077616c6c6574000000000000000000006000830152602082019050919050565b6000612f146011836133ec565b91507f5769746864726177616c206661696c65640000000000000000000000000000006000830152602082019050919050565b612f5081613599565b82525050565b6000612f62828561278c565b9150612f6e828461275b565b9150612f7982612cfb565b91508190509392505050565b6000612f9082612e47565b9150819050919050565b6000602082019050612faf60008301846126cb565b92915050565b6000602082019050612fca60008301846126bc565b92915050565b6000608082019050612fe560008301876126cb565b612ff260208301866126cb565b612fff6040830185612f47565b818103606083015261301181846126e9565b905095945050505050565b600060208201905061303160008301846126da565b92915050565b600060208201905081810360008301526130518184612722565b905092915050565b600060208201905081810360008301526130728161280b565b9050919050565b6000602082019050818103600083015261309281612871565b9050919050565b600060208201905081810360008301526130b2816128d7565b9050919050565b600060208201905081810360008301526130d281612917565b9050919050565b600060208201905081810360008301526130f28161297d565b9050919050565b60006020820190508181036000830152613112816129bd565b9050919050565b60006020820190508181036000830152613132816129fd565b9050919050565b6000602082019050818103600083015261315281612a63565b9050919050565b6000602082019050818103600083015261317281612aa3565b9050919050565b6000602082019050818103600083015261319281612ae3565b9050919050565b600060208201905081810360008301526131b281612b49565b9050919050565b600060208201905081810360008301526131d281612baf565b9050919050565b600060208201905081810360008301526131f281612c15565b9050919050565b6000602082019050818103600083015261321281612c55565b9050919050565b6000602082019050818103600083015261323281612c95565b9050919050565b6000602082019050818103600083015261325281612d3b565b9050919050565b6000602082019050818103600083015261327281612d7b565b9050919050565b6000602082019050818103600083015261329281612de1565b9050919050565b600060208201905081810360008301526132b281612e61565b9050919050565b600060208201905081810360008301526132d281612ec7565b9050919050565b600060208201905081810360008301526132f281612f07565b9050919050565b600060208201905061330e6000830184612f47565b92915050565b6000604051905081810181811067ffffffffffffffff8211171561333b5761333a61371e565b5b8060405250919050565b600067ffffffffffffffff8211156133605761335f61371e565b5b601f19601f8301169050602081019050919050565b600067ffffffffffffffff8211156133905761338f61371e565b5b601f19601f8301169050602081019050919050565b60008190508160005260206000209050919050565b600081519050919050565b600081519050919050565b600082825260208201905092915050565b600081905092915050565b600082825260208201905092915050565b600081905092915050565b600061341382613599565b915061341e83613599565b9250827fffffffffffffffffffffffffffffffffffffffffffffffffffffffffffffffff0382111561345357613452613691565b5b828201905092915050565b600061346982613599565b915061347483613599565b925082613484576134836136c0565b5b828204905092915050565b600061349a82613599565b91506134a583613599565b9250817fffffffffffffffffffffffffffffffffffffffffffffffffffffffffffffffff04831182151516156134de576134dd613691565b5b828202905092915050565b60006134f482613599565b91506134ff83613599565b92508282101561351257613511613691565b5b828203905092915050565b600061352882613579565b9050919050565b600061353a82613579565b9050919050565b60008115159050919050565b60007fffffffff0000000000000000000000000000000000000000000000000000000082169050919050565b600073ffffffffffffffffffffffffffffffffffffffff82169050919050565b6000819050919050565b82818337600083830152505050565b60005b838110156135d05780820151818401526020810190506135b5565b838111156135df576000848401525b50505050565b600060028204905060018216806135fd57607f821691505b60208210811415613611576136106136ef565b5b50919050565b600061362282613599565b91507fffffffffffffffffffffffffffffffffffffffffffffffffffffffffffffffff82141561365557613654613691565b5b600182019050919050565b600061366b82613599565b915061367683613599565b925082613686576136856136c0565b5b828206905092915050565b7f4e487b7100000000000000000000000000000000000000000000000000000000600052601160045260246000fd5b7f4e487b7100000000000000000000000000000000000000000000000000000000600052601260045260246000fd5b7f4e487b7100000000000000000000000000000000000000000000000000000000600052602260045260246000fd5b7f4e487b7100000000000000000000000000000000000000000000000000000000600052604160045260246000fd5b6000601f19601f8301169050919050565b6137678161351d565b811461377257600080fd5b50565b61377e81613541565b811461378957600080fd5b50565b6137958161354d565b81146137a057600080fd5b50565b6137ac81613599565b81146137b757600080fd5b5056fea26469706673582212203400e673799f48bb2abd7aca63b57f67f5e72f9a2a1324bcff55532a8075fd3b64736f6c63430008000033",
    "linkReferences": {},
    "deployedLinkReferences": {}
}